{
  "transactions": [
    {
      "hash": "0x24d797577bd4ab57c6274327b389c8147751f3a700dafba0da7c838422574a54",
      "transactionType": "CALL",
      "contractName": null,
      "contractAddress": "0xa16dfb32eb140a6f3f2ac68f41dad8c7e83c4941",
      "function": "setApprovalForAll(address,bool)",
      "arguments": [
        "0x70e0a4998B4e0e726BfAb678f6A6141A2AaE3c95",
        "true"
      ],
      "transaction": {
        "from": "0xdac6e56f86fb6f18c4114c2e4f41901ab9803096",
        "to": "0xa16dfb32eb140a6f3f2ac68f41dad8c7e83c4941",
        "gas": "0x1140d",
        "value": "0x0",
        "input": "0xa22cb46500000000000000000000000070e0a4998b4e0e726bfab678f6a6141a2aae3c950000000000000000000000000000000000000000000000000000000000000001",
        "nonce": "0x42",
        "chainId": "0xaa36a7"
      },
      "additionalContracts": [],
      "isFixedGasLimit": false
    },
    {
      "hash": "0x96e5b02f0c8697298a013b9a67e716064c1b09c6b0831f0b3551158beaf8f18e",
      "transactionType": "CALL",
      "contractName": null,
      "contractAddress": "0x70e0a4998b4e0e726bfab678f6a6141a2aae3c95",
      "function": "initProject(string,address)",
      "arguments": [
        "ipfs://QmSeedProject1",
        "0xdaC6E56F86Fb6f18c4114C2E4f41901ab9803096"
      ],
      "transaction": {
        "from": "0xdac6e56f86fb6f18c4114c2e4f41901ab9803096",
        "to": "0x70e0a4998b4e0e726bfab678f6a6141a2aae3c95",
        "gas": "0x42486",
        "value": "0x0",
        "input": "0x090b4d310000000000000000000000000000000000000000000000000000000000000040000000000000000000000000dac6e56f86fb6f18c4114c2e4f41901ab98030960000000000000000000000000000000000000000000000000000000000000015697066733a2f2f516d5365656450726f6a656374310000000000000000000000",
        "nonce": "0x43",
        "chainId": "0xaa36a7"
      },
      "additionalContracts": [],
      "isFixedGasLimit": false
    },
    {
      "hash": "0x58aae2523362b21692162d91c8085c4538c58f47eebaa25dc1e641ecd192b65c",
      "transactionType": "CALL",
      "contractName": null,
      "contractAddress": "0x70e0a4998b4e0e726bfab678f6a6141a2aae3c95",
      "function": "storeTokenIDInit(string,uint256,uint256)",
      "arguments": [
        "ipfs://QmSeedProject1",
        "325650225143338109534449499312202178363393",
        "1000000"
      ],
      "transaction": {
        "from": "0xdac6e56f86fb6f18c4114c2e4f41901ab9803096",
        "to": "0x70e0a4998b4e0e726bfab678f6a6141a2aae3c95",
        "gas": "0x2fc86",
        "value": "0x0",
        "input": "0x8bf756910000000000000000000000000000000000000000000000000000000000000060000000000000000000000000000003bd0000000000000000000000000000000100000000000000000000000000000000000000000000000000000000000f42400000000000000000000000000000000000000000000000000000000000000015697066733a2f2f516d5365656450726f6a656374310000000000000000000000",
        "nonce": "0x44",
        "chainId": "0xaa36a7"
      },
      "additionalContracts": [],
      "isFixedGasLimit": false
    },
    {
      "hash": "0x9de243ad6d02e22d0886380aa6a76ed1bafa218d47474abd9852ad5dddb881a4",
      "transactionType": "CALL",
      "contractName": null,
      "contractAddress": "0x70e0a4998b4e0e726bfab678f6a6141a2aae3c95",
      "function": "recordOutputs(string,string)",
      "arguments": [
        "ipfs://QmSeedProject1",
        "ipfs://outputs-0"
      ],
      "transaction": {
        "from": "0xdac6e56f86fb6f18c4114c2e4f41901ab9803096",
        "to": "0x70e0a4998b4e0e726bfab678f6a6141a2aae3c95",
        "gas": "0x14553",
        "value": "0x0",
        "input": "0xddda1e07000000000000000000000000000000000000000000000000000000000000004000000000000000000000000000000000000000000000000000000000000000800000000000000000000000000000000000000000000000000000000000000015697066733a2f2f516d5365656450726f6a6563743100000000000000000000000000000000000000000000000000000000000000000000000000000000000010697066733a2f2f6f7574707574732d3000000000000000000000000000000000",
        "nonce": "0x45",
        "chainId": "0xaa36a7"
      },
      "additionalContracts": [],
      "isFixedGasLimit": false
    },
    {
      "hash": "0xbbd4facab9bb7908ed2d82ddbf3184282c858dfeb05f38b6784928552b71b4cb",
      "transactionType": "CALL",
      "contractName": null,
      "contractAddress": "0x70e0a4998b4e0e726bfab678f6a6141a2aae3c95",
      "function": "initProject(string,address)",
      "arguments": [
        "ipfs://QmSeedProject2",
        "0xdaC6E56F86Fb6f18c4114C2E4f41901ab9803096"
      ],
      "transaction": {
        "from": "0xdac6e56f86fb6f18c4114c2e4f41901ab9803096",
        "to": "0x70e0a4998b4e0e726bfab678f6a6141a2aae3c95",
        "gas": "0x36c00",
        "value": "0x0",
        "input": "0x090b4d310000000000000000000000000000000000000000000000000000000000000040000000000000000000000000dac6e56f86fb6f18c4114c2e4f41901ab98030960000000000000000000000000000000000000000000000000000000000000015697066733a2f2f516d5365656450726f6a656374320000000000000000000000",
        "nonce": "0x46",
        "chainId": "0xaa36a7"
      },
      "additionalContracts": [],
      "isFixedGasLimit": false
    },
    {
      "hash": "0x9b4864366d5563914408f5358fcd5effd54f7c4f974465dd22c25bd1abb2f6c3",
      "transactionType": "CALL",
      "contractName": null,
      "contractAddress": "0x70e0a4998b4e0e726bfab678f6a6141a2aae3c95",
      "function": "storeTokenIDInit(string,uint256,uint256)",
      "arguments": [
        "ipfs://QmSeedProject2",
        "325990507510259047997912873919633946574849",
        "1000000"
      ],
      "transaction": {
        "from": "0xdac6e56f86fb6f18c4114c2e4f41901ab9803096",
        "to": "0x70e0a4998b4e0e726bfab678f6a6141a2aae3c95",
        "gas": "0x2fc86",
        "value": "0x0",
        "input": "0x8bf756910000000000000000000000000000000000000000000000000000000000000060000000000000000000000000000003be0000000000000000000000000000000100000000000000000000000000000000000000000000000000000000000f42400000000000000000000000000000000000000000000000000000000000000015697066733a2f2f516d5365656450726f6a656374320000000000000000000000",
        "nonce": "0x47",
        "chainId": "0xaa36a7"
      },
      "additionalContracts": [],
      "isFixedGasLimit": false
    },
    {
      "hash": "0x1c5fef05757c28317c134e683fb645f7fb9baa3a7852475945aea51073abf1b2",
      "transactionType": "CALL",
      "contractName": null,
      "contractAddress": "0x70e0a4998b4e0e726bfab678f6a6141a2aae3c95",
      "function": "recordOutputs(string,string)",
      "arguments": [
        "ipfs://QmSeedProject2",
        "ipfs://outputs-1"
      ],
      "transaction": {
        "from": "0xdac6e56f86fb6f18c4114c2e4f41901ab9803096",
        "to": "0x70e0a4998b4e0e726bfab678f6a6141a2aae3c95",
        "gas": "0x14553",
        "value": "0x0",
        "input": "0xddda1e07000000000000000000000000000000000000000000000000000000000000004000000000000000000000000000000000000000000000000000000000000000800000000000000000000000000000000000000000000000000000000000000015697066733a2f2f516d5365656450726f6a6563743200000000000000000000000000000000000000000000000000000000000000000000000000000000000010697066733a2f2f6f7574707574732d3100000000000000000000000000000000",
        "nonce": "0x48",
        "chainId": "0xaa36a7"
      },
      "additionalContracts": [],
      "isFixedGasLimit": false
    },
    {
      "hash": "0x383a61e1777c9bca12c97abd60fe09a1e707a1c632c62f23b8e552827d6d5e31",
      "transactionType": "CALL",
      "contractName": null,
      "contractAddress": "0x70e0a4998b4e0e726bfab678f6a6141a2aae3c95",
      "function": "initProject(string,address)",
      "arguments": [
        "ipfs://QmSeedProject3",
        "0xdaC6E56F86Fb6f18c4114C2E4f41901ab9803096"
      ],
      "transaction": {
        "from": "0xdac6e56f86fb6f18c4114c2e4f41901ab9803096",
        "to": "0x70e0a4998b4e0e726bfab678f6a6141a2aae3c95",
        "gas": "0x36c00",
        "value": "0x0",
        "input": "0x090b4d310000000000000000000000000000000000000000000000000000000000000040000000000000000000000000dac6e56f86fb6f18c4114c2e4f41901ab98030960000000000000000000000000000000000000000000000000000000000000015697066733a2f2f516d5365656450726f6a656374330000000000000000000000",
        "nonce": "0x49",
        "chainId": "0xaa36a7"
      },
      "additionalContracts": [],
      "isFixedGasLimit": false
    },
    {
      "hash": "0x82a307040d4e62e068bd1778fb72ae1e02f961f3bcd9a9175211627c830c9842",
      "transactionType": "CALL",
      "contractName": null,
      "contractAddress": "0x70e0a4998b4e0e726bfab678f6a6141a2aae3c95",
      "function": "storeTokenIDInit(string,uint256,uint256)",
      "arguments": [
        "ipfs://QmSeedProject3",
        "326330789877179986461376248527065714786305",
        "1000000"
      ],
      "transaction": {
        "from": "0xdac6e56f86fb6f18c4114c2e4f41901ab9803096",
        "to": "0x70e0a4998b4e0e726bfab678f6a6141a2aae3c95",
        "gas": "0x2fc86",
        "value": "0x0",
        "input": "0x8bf756910000000000000000000000000000000000000000000000000000000000000060000000000000000000000000000003bf0000000000000000000000000000000100000000000000000000000000000000000000000000000000000000000f42400000000000000000000000000000000000000000000000000000000000000015697066733a2f2f516d5365656450726f6a656374330000000000000000000000",
        "nonce": "0x4a",
        "chainId": "0xaa36a7"
      },
      "additionalContracts": [],
      "isFixedGasLimit": false
    },
    {
      "hash": "0xc2b0b543bd1c68434c757a972ed9adaa179ed16dffabd689f7173b72dc3f93ba",
      "transactionType": "CALL",
      "contractName": null,
      "contractAddress": "0x70e0a4998b4e0e726bfab678f6a6141a2aae3c95",
      "function": "recordOutputs(string,string)",
      "arguments": [
        "ipfs://QmSeedProject3",
        "ipfs://outputs-2"
      ],
      "transaction": {
        "from": "0xdac6e56f86fb6f18c4114c2e4f41901ab9803096",
        "to": "0x70e0a4998b4e0e726bfab678f6a6141a2aae3c95",
        "gas": "0x14553",
        "value": "0x0",
        "input": "0xddda1e07000000000000000000000000000000000000000000000000000000000000004000000000000000000000000000000000000000000000000000000000000000800000000000000000000000000000000000000000000000000000000000000015697066733a2f2f516d5365656450726f6a6563743300000000000000000000000000000000000000000000000000000000000000000000000000000000000010697066733a2f2f6f7574707574732d3200000000000000000000000000000000",
        "nonce": "0x4b",
        "chainId": "0xaa36a7"
      },
      "additionalContracts": [],
      "isFixedGasLimit": false
    }
  ],
  "receipts": [
    {
      "status": "0x1",
      "cumulativeGasUsed": "0xc7dc",
      "logs": [
        {
          "address": "0xa16dfb32eb140a6f3f2ac68f41dad8c7e83c4941",
          "topics": [
            "0x17307eab39ab6107e8899845ad3d59bd9653f200f220920489ca2b5937696c31",
            "0x000000000000000000000000dac6e56f86fb6f18c4114c2e4f41901ab9803096",
            "0x00000000000000000000000070e0a4998b4e0e726bfab678f6a6141a2aae3c95"
          ],
          "data": "0x0000000000000000000000000000000000000000000000000000000000000001",
          "blockHash": "0x1094e9ac420697dbf7674a76fc4d5d661b52b0238abf4788174453f96c3961a2",
          "blockNumber": "0x849be0",
          "blockTimestamp": "0x6867ded4",
          "transactionHash": "0x24d797577bd4ab57c6274327b389c8147751f3a700dafba0da7c838422574a54",
          "transactionIndex": "0x0",
          "logIndex": "0x0",
          "removed": false
        }
      ],
      "logsBloom": "0x00000000000000000000000000000000000000000000000000000000000000000000000000000000000000000000000020000000000000000000000000000000000000000008000000000000000000000000000000000000000000000000000002000000000000010000000000000000000000000400000000000000000000000000000008000000000000000000000000000000000000000000000000000000000000000000000000000000000000000000020000000000000100000000000000000000000000000000000000000000000000000000000000000000004000000000200800000000000000000000000000000000000000000000000000000000",
      "type": "0x2",
      "transactionHash": "0x24d797577bd4ab57c6274327b389c8147751f3a700dafba0da7c838422574a54",
      "transactionIndex": "0x0",
      "blockHash": "0x1094e9ac420697dbf7674a76fc4d5d661b52b0238abf4788174453f96c3961a2",
      "blockNumber": "0x849be0",
      "gasUsed": "0xc7dc",
      "effectiveGasPrice": "0x3c342166",
      "blobGasPrice": "0x1",
      "from": "0xdac6e56f86fb6f18c4114c2e4f41901ab9803096",
      "to": "0xa16dfb32eb140a6f3f2ac68f41dad8c7e83c4941",
      "contractAddress": null
    },
    {
      "status": "0x1",
      "cumulativeGasUsed": "0x2ffce",
      "logs": [
        {
          "address": "0x70e0a4998b4e0e726bfab678f6a6141a2aae3c95",
          "topics": [
            "0xfa4b098e431ea3e9694b01acc7953efb1277c5eb3e4c4badf3c0e0e79f857b94",
            "0x000000000000000000000000dac6e56f86fb6f18c4114c2e4f41901ab9803096",
            "0x0000000000000000000000000000000000000000000000000000000000000000"
          ],
          "data": "0x00000000000000000000000000000000000000000000000000000000000000200000000000000000000000000000000000000000000000000000000000000015697066733a2f2f516d5365656450726f6a656374310000000000000000000000",
          "blockHash": "0xa57d57e01652abcb3ca7a30281a2ce04a3faa92f35c88cf5340cb5f446535e12",
          "blockNumber": "0x849be1",
          "blockTimestamp": "0x6867ded4",
          "transactionHash": "0x96e5b02f0c8697298a013b9a67e716064c1b09c6b0831f0b3551158beaf8f18e",
          "transactionIndex": "0x0",
          "logIndex": "0x0",
          "removed": false
        }
      ],
      "logsBloom": "0x00000000000000000000100000000000000000000000000000000000000000000000000000000000008000000000000000000000000000000000000000000000000000000000000000000000000000000000000000000000000000000000000000000000020000000000000000000800000000000400004002000000000000000000000008000000000000000000000000000000000080000000000000000000000000000000000000000000000000000000020000000000000000000000000000000000000000000000000000000000000000000000000000000000000120000000000000000000000000000000000000000000000000000000000000000000",
      "type": "0x2",
      "transactionHash": "0x96e5b02f0c8697298a013b9a67e716064c1b09c6b0831f0b3551158beaf8f18e",
      "transactionIndex": "0x0",
      "blockHash": "0xa57d57e01652abcb3ca7a30281a2ce04a3faa92f35c88cf5340cb5f446535e12",
      "blockNumber": "0x849be1",
      "gasUsed": "0x2ffce",
      "effectiveGasPrice": "0x3a4572cb",
      "blobGasPrice": "0x1",
      "from": "0xdac6e56f86fb6f18c4114c2e4f41901ab9803096",
      "to": "0x70e0a4998b4e0e726bfab678f6a6141a2aae3c95",
      "contractAddress": null
    },
    {
      "status": "0x1",
      "cumulativeGasUsed": "0x50a8f",
      "logs": [],
      "logsBloom": "0x00000000000000000000000000000000000000000000000000000000000000000000000000000000000000000000000000000000000000000000000000000000000000000000000000000000000000000000000000000000000000000000000000000000000000000000000000000000000000000000000000000000000000000000000000000000000000000000000000000000000000000000000000000000000000000000000000000000000000000000000000000000000000000000000000000000000000000000000000000000000000000000000000000000000000000000000000000000000000000000000000000000000000000000000000000000",
      "type": "0x2",
      "transactionHash": "0x58aae2523362b21692162d91c8085c4538c58f47eebaa25dc1e641ecd192b65c",
      "transactionIndex": "0x1",
      "blockHash": "0xa57d57e01652abcb3ca7a30281a2ce04a3faa92f35c88cf5340cb5f446535e12",
      "blockNumber": "0x849be1",
      "gasUsed": "0x20ac1",
      "effectiveGasPrice": "0x3a4572cb",
      "blobGasPrice": "0x1",
      "from": "0xdac6e56f86fb6f18c4114c2e4f41901ab9803096",
      "to": "0x70e0a4998b4e0e726bfab678f6a6141a2aae3c95",
      "contractAddress": null
    },
    {
      "status": "0x1",
      "cumulativeGasUsed": "0x5e901",
      "logs": [
        {
          "address": "0x70e0a4998b4e0e726bfab678f6a6141a2aae3c95",
          "topics": [
            "0x83810a5ae5d74fe9f6edba3f5afafdd0f80dc76006055b5c9d592bfd84daab66",
            "0x000000000000000000000000dac6e56f86fb6f18c4114c2e4f41901ab9803096",
            "0x000000000000000000000000000003bd00000000000000000000000000000000"
          ],
          "data": "0x000000000000000000000000000000000000000000000000000000000000004000000000000000000000000000000000000000000000000000000000000000800000000000000000000000000000000000000000000000000000000000000015697066733a2f2f516d5365656450726f6a6563743100000000000000000000000000000000000000000000000000000000000000000000000000000000000010697066733a2f2f6f7574707574732d3000000000000000000000000000000000",
          "blockHash": "0xa57d57e01652abcb3ca7a30281a2ce04a3faa92f35c88cf5340cb5f446535e12",
          "blockNumber": "0x849be1",
          "blockTimestamp": "0x6867ded4",
          "transactionHash": "0x9de243ad6d02e22d0886380aa6a76ed1bafa218d47474abd9852ad5dddb881a4",
          "transactionIndex": "0x2",
          "logIndex": "0x1",
          "removed": false
        }
      ],
      "logsBloom": "0x00000000000000000000100000000000000000000000000000000000000000000000000000000000000000000000000000000000000000000000000000000000000000000000040000000000000000000000000000000000000000000000000000000000000040000000000000000000000000000400004000000000000000000000000008000000001000000000000000000000000000000000000000000000000000000000000000000400000000000000020000000000000000000000000000000000000000000000000000000000000000000000000000000000000100000000000000000000000000000008000000000080000000000000000000000000",
      "type": "0x2",
      "transactionHash": "0x9de243ad6d02e22d0886380aa6a76ed1bafa218d47474abd9852ad5dddb881a4",
      "transactionIndex": "0x2",
      "blockHash": "0xa57d57e01652abcb3ca7a30281a2ce04a3faa92f35c88cf5340cb5f446535e12",
      "blockNumber": "0x849be1",
      "gasUsed": "0xde72",
      "effectiveGasPrice": "0x3a4572cb",
      "blobGasPrice": "0x1",
      "from": "0xdac6e56f86fb6f18c4114c2e4f41901ab9803096",
      "to": "0x70e0a4998b4e0e726bfab678f6a6141a2aae3c95",
      "contractAddress": null
    },
    {
      "status": "0x1",
      "cumulativeGasUsed": "0x27a36",
      "logs": [
        {
          "address": "0x70e0a4998b4e0e726bfab678f6a6141a2aae3c95",
          "topics": [
            "0xfa4b098e431ea3e9694b01acc7953efb1277c5eb3e4c4badf3c0e0e79f857b94",
            "0x000000000000000000000000dac6e56f86fb6f18c4114c2e4f41901ab9803096",
            "0x0000000000000000000000000000000000000000000000000000000000000000"
          ],
          "data": "0x00000000000000000000000000000000000000000000000000000000000000200000000000000000000000000000000000000000000000000000000000000015697066733a2f2f516d5365656450726f6a656374320000000000000000000000",
          "blockHash": "0x156dcfa114a9584d4a9384cfcbb9543d070744f80e429774fdc53946cb028966",
          "blockNumber": "0x849be2",
          "blockTimestamp": "0x6867ded4",
          "transactionHash": "0xbbd4facab9bb7908ed2d82ddbf3184282c858dfeb05f38b6784928552b71b4cb",
          "transactionIndex": "0x0",
          "logIndex": "0x0",
          "removed": false
        }
      ],
      "logsBloom": "0x00000000000000000000100000000000000000000000000000000000000000000000000000000000008000000000000000000000000000000000000000000000000000000000000000000000000000000000000000000000000000000000000000000000020000000000000000000800000000000400004002000000000000000000000008000000000000000000000000000000000080000000000000000000000000000000000000000000000000000000020000000000000000000000000000000000000000000000000000000000000000000000000000000000000120000000000000000000000000000000000000000000000000000000000000000000",
      "type": "0x2",
      "transactionHash": "0xbbd4facab9bb7908ed2d82ddbf3184282c858dfeb05f38b6784928552b71b4cb",
      "transactionIndex": "0x0",
      "blockHash": "0x156dcfa114a9584d4a9384cfcbb9543d070744f80e429774fdc53946cb028966",
      "blockNumber": "0x849be2",
      "gasUsed": "0x27a36",
      "effectiveGasPrice": "0x38995c4d",
      "blobGasPrice": "0x1",
      "from": "0xdac6e56f86fb6f18c4114c2e4f41901ab9803096",
      "to": "0x70e0a4998b4e0e726bfab678f6a6141a2aae3c95",
      "contractAddress": null
    },
    {
      "status": "0x1",
      "cumulativeGasUsed": "0x20ac1",
      "logs": [],
      "logsBloom": "0x00000000000000000000000000000000000000000000000000000000000000000000000000000000000000000000000000000000000000000000000000000000000000000000000000000000000000000000000000000000000000000000000000000000000000000000000000000000000000000000000000000000000000000000000000000000000000000000000000000000000000000000000000000000000000000000000000000000000000000000000000000000000000000000000000000000000000000000000000000000000000000000000000000000000000000000000000000000000000000000000000000000000000000000000000000000",
      "type": "0x2",
      "transactionHash": "0x9b4864366d5563914408f5358fcd5effd54f7c4f974465dd22c25bd1abb2f6c3",
      "transactionIndex": "0x0",
      "blockHash": "0x5dcb068b1a9ab0c5031d72d457c49c95c5b5bff80357a4c961e357d17b326d14",
      "blockNumber": "0x849be3",
      "gasUsed": "0x20ac1",
      "effectiveGasPrice": "0x371f3d03",
      "blobGasPrice": "0x1",
      "from": "0xdac6e56f86fb6f18c4114c2e4f41901ab9803096",
      "to": "0x70e0a4998b4e0e726bfab678f6a6141a2aae3c95",
      "contractAddress": null
    },
    {
      "status": "0x1",
      "cumulativeGasUsed": "0x2e933",
      "logs": [
        {
          "address": "0x70e0a4998b4e0e726bfab678f6a6141a2aae3c95",
          "topics": [
            "0x83810a5ae5d74fe9f6edba3f5afafdd0f80dc76006055b5c9d592bfd84daab66",
            "0x000000000000000000000000dac6e56f86fb6f18c4114c2e4f41901ab9803096",
            "0x000000000000000000000000000003be00000000000000000000000000000000"
          ],
          "data": "0x000000000000000000000000000000000000000000000000000000000000004000000000000000000000000000000000000000000000000000000000000000800000000000000000000000000000000000000000000000000000000000000015697066733a2f2f516d5365656450726f6a6563743200000000000000000000000000000000000000000000000000000000000000000000000000000000000010697066733a2f2f6f7574707574732d3100000000000000000000000000000000",
          "blockHash": "0x5dcb068b1a9ab0c5031d72d457c49c95c5b5bff80357a4c961e357d17b326d14",
          "blockNumber": "0x849be3",
          "blockTimestamp": "0x6867ded4",
          "transactionHash": "0x1c5fef05757c28317c134e683fb645f7fb9baa3a7852475945aea51073abf1b2",
          "transactionIndex": "0x1",
          "logIndex": "0x0",
          "removed": false
        }
      ],
      "logsBloom": "0x00000000000000000000100000000000000000000000000000000000000000000000000000000000000000000000000000000000000000000000000000000000000000000000040000000000000000000000000800400000000000000000000000000000000000000000000000000000000000000400004000000000000000000080000008000000001000000000000000000000000000000000000000000000000000000000000000000400000000000000020000000000000000000000000000000000000000000000000000000000000000000000000000000000000100000000000000000000000000000000000000000000000000000000000000000000",
      "type": "0x2",
      "transactionHash": "0x1c5fef05757c28317c134e683fb645f7fb9baa3a7852475945aea51073abf1b2",
      "transactionIndex": "0x1",
      "blockHash": "0x5dcb068b1a9ab0c5031d72d457c49c95c5b5bff80357a4c961e357d17b326d14",
      "blockNumber": "0x849be3",
      "gasUsed": "0xde72",
      "effectiveGasPrice": "0x371f3d03",
      "blobGasPrice": "0x1",
      "from": "0xdac6e56f86fb6f18c4114c2e4f41901ab9803096",
      "to": "0x70e0a4998b4e0e726bfab678f6a6141a2aae3c95",
      "contractAddress": null
    },
    {
      "status": "0x1",
      "cumulativeGasUsed": "0x56369",
      "logs": [
        {
          "address": "0x70e0a4998b4e0e726bfab678f6a6141a2aae3c95",
          "topics": [
            "0xfa4b098e431ea3e9694b01acc7953efb1277c5eb3e4c4badf3c0e0e79f857b94",
            "0x000000000000000000000000dac6e56f86fb6f18c4114c2e4f41901ab9803096",
            "0x0000000000000000000000000000000000000000000000000000000000000000"
          ],
          "data": "0x00000000000000000000000000000000000000000000000000000000000000200000000000000000000000000000000000000000000000000000000000000015697066733a2f2f516d5365656450726f6a656374330000000000000000000000",
          "blockHash": "0x5dcb068b1a9ab0c5031d72d457c49c95c5b5bff80357a4c961e357d17b326d14",
          "blockNumber": "0x849be3",
          "blockTimestamp": "0x6867ded4",
          "transactionHash": "0x383a61e1777c9bca12c97abd60fe09a1e707a1c632c62f23b8e552827d6d5e31",
          "transactionIndex": "0x2",
          "logIndex": "0x1",
          "removed": false
        }
      ],
      "logsBloom": "0x00000000000000000000100000000000000000000000000000000000000000000000000000000000008000000000000000000000000000000000000000000000000000000000000000000000000000000000000000000000000000000000000000000000020000000000000000000800000000000400004002000000000000000000000008000000000000000000000000000000000080000000000000000000000000000000000000000000000000000000020000000000000000000000000000000000000000000000000000000000000000000000000000000000000120000000000000000000000000000000000000000000000000000000000000000000",
      "type": "0x2",
      "transactionHash": "0x383a61e1777c9bca12c97abd60fe09a1e707a1c632c62f23b8e552827d6d5e31",
      "transactionIndex": "0x2",
      "blockHash": "0x5dcb068b1a9ab0c5031d72d457c49c95c5b5bff80357a4c961e357d17b326d14",
      "blockNumber": "0x849be3",
      "gasUsed": "0x27a36",
      "effectiveGasPrice": "0x371f3d03",
      "blobGasPrice": "0x1",
      "from": "0xdac6e56f86fb6f18c4114c2e4f41901ab9803096",
      "to": "0x70e0a4998b4e0e726bfab678f6a6141a2aae3c95",
      "contractAddress": null
    },
    {
      "status": "0x1",
      "cumulativeGasUsed": "0x20ac1",
      "logs": [],
      "logsBloom": "0x00000000000000000000000000000000000000000000000000000000000000000000000000000000000000000000000000000000000000000000000000000000000000000000000000000000000000000000000000000000000000000000000000000000000000000000000000000000000000000000000000000000000000000000000000000000000000000000000000000000000000000000000000000000000000000000000000000000000000000000000000000000000000000000000000000000000000000000000000000000000000000000000000000000000000000000000000000000000000000000000000000000000000000000000000000000",
      "type": "0x2",
      "transactionHash": "0x82a307040d4e62e068bd1778fb72ae1e02f961f3bcd9a9175211627c830c9842",
      "transactionIndex": "0x0",
      "blockHash": "0x6933cecf059d35d30cb15cdad1bb7eee5ad0bc27c35e2b564ffebfd12031c667",
      "blockNumber": "0x849be4",
      "gasUsed": "0x20ac1",
      "effectiveGasPrice": "0x35d63e94",
      "blobGasPrice": "0x1",
      "from": "0xdac6e56f86fb6f18c4114c2e4f41901ab9803096",
      "to": "0x70e0a4998b4e0e726bfab678f6a6141a2aae3c95",
      "contractAddress": null
    },
    {
      "status": "0x1",
      "cumulativeGasUsed": "0xde72",
      "logs": [
        {
          "address": "0x70e0a4998b4e0e726bfab678f6a6141a2aae3c95",
          "topics": [
            "0x83810a5ae5d74fe9f6edba3f5afafdd0f80dc76006055b5c9d592bfd84daab66",
            "0x000000000000000000000000dac6e56f86fb6f18c4114c2e4f41901ab9803096",
            "0x000000000000000000000000000003bf00000000000000000000000000000000"
          ],
          "data": "0x000000000000000000000000000000000000000000000000000000000000004000000000000000000000000000000000000000000000000000000000000000800000000000000000000000000000000000000000000000000000000000000015697066733a2f2f516d5365656450726f6a6563743300000000000000000000000000000000000000000000000000000000000000000000000000000000000010697066733a2f2f6f7574707574732d3200000000000000000000000000000000",
          "blockHash": "0x506061c00681248f0da204b1f6d3932133be878da138e2d6d669e0352ece9d97",
          "blockNumber": "0x849be5",
          "blockTimestamp": "0x6867ded4",
          "transactionHash": "0xc2b0b543bd1c68434c757a972ed9adaa179ed16dffabd689f7173b72dc3f93ba",
          "transactionIndex": "0x0",
          "logIndex": "0x0",
          "removed": false
        }
      ],
      "logsBloom": "0x00000000000000000000100000000000000000000000000000000000000000000000000000000000000000000000000000000000000000000000000000000000000000000400040000000000000000000000000000000000000000000000000000000000000000000000000000000000000000000400004000000000000000000000000008000000001000000000000000000000000000000020000000000000000000000000000000000400000000000000020000000000000000000000000000000000000000000000000000000000000000000000000000000000200100000000000000000000000000000000000000000000000000000000000000000000",
      "type": "0x2",
      "transactionHash": "0xc2b0b543bd1c68434c757a972ed9adaa179ed16dffabd689f7173b72dc3f93ba",
      "transactionIndex": "0x0",
      "blockHash": "0x506061c00681248f0da204b1f6d3932133be878da138e2d6d669e0352ece9d97",
      "blockNumber": "0x849be5",
      "gasUsed": "0xde72",
      "effectiveGasPrice": "0x34b3c150",
      "blobGasPrice": "0x1",
      "from": "0xdac6e56f86fb6f18c4114c2e4f41901ab9803096",
      "to": "0x70e0a4998b4e0e726bfab678f6a6141a2aae3c95",
      "contractAddress": null
    }
  ],
  "libraries": [],
  "pending": [],
  "returns": {},
  "timestamp": 1751637724,
  "chain": 11155111,
  "commit": "d412e1d"
}