{
  "transactions": [
    {
      "hash": "0x6edcca78e2cac80c35450d3d998c2541700291519c49cf5c0c135320d5d2653c",
      "transactionType": "CALL",
      "contractName": null,
      "contractAddress": "0x7a53ef41aa7ced910e6118457a3d54b20bad7e5a",
      "function": "initProject(string,address)",
      "arguments": [
        "ipfs://QmSeedProject1",
        "0xdaC6E56F86Fb6f18c4114C2E4f41901ab9803096"
      ],
      "transaction": {
        "from": "0xf39fd6e51aad88f6f4ce6ab8827279cfffb92266",
        "to": "0x7a53ef41aa7ced910e6118457a3d54b20bad7e5a",
        "gas": "0x42486",
        "value": "0x0",
        "input": "0x090b4d310000000000000000000000000000000000000000000000000000000000000040000000000000000000000000dac6e56f86fb6f18c4114c2e4f41901ab98030960000000000000000000000000000000000000000000000000000000000000015697066733a2f2f516d5365656450726f6a656374310000000000000000000000",
        "nonce": "0x43f5",
        "chainId": "0xaa36a7"
      },
      "additionalContracts": [],
      "isFixedGasLimit": false
    },
    {
      "hash": "0x65cbf5fbbeb837ccadbfbfa96d7ded399172f8fd3c07b2cbea427c50fd56a6c9",
      "transactionType": "CALL",
      "contractName": null,
      "contractAddress": "0x7a53ef41aa7ced910e6118457a3d54b20bad7e5a",
      "function": "initProject(string,address)",
      "arguments": [
        "ipfs://QmSeedProject2",
        "0xdaC6E56F86Fb6f18c4114C2E4f41901ab9803096"
      ],
      "transaction": {
        "from": "0xf39fd6e51aad88f6f4ce6ab8827279cfffb92266",
        "to": "0x7a53ef41aa7ced910e6118457a3d54b20bad7e5a",
        "gas": "0x36c00",
        "value": "0x0",
        "input": "0x090b4d310000000000000000000000000000000000000000000000000000000000000040000000000000000000000000dac6e56f86fb6f18c4114c2e4f41901ab98030960000000000000000000000000000000000000000000000000000000000000015697066733a2f2f516d5365656450726f6a656374320000000000000000000000",
        "nonce": "0x43f6",
        "chainId": "0xaa36a7"
      },
      "additionalContracts": [],
      "isFixedGasLimit": false
    },
    {
      "hash": "0x63b98b8e37d9c3a16cfd7b3cee6e3191371df00217fc30bc1e03b6673dc2f09c",
      "transactionType": "CALL",
      "contractName": null,
      "contractAddress": "0x7a53ef41aa7ced910e6118457a3d54b20bad7e5a",
      "function": "initProject(string,address)",
      "arguments": [
        "ipfs://QmSeedProject3",
        "0xdaC6E56F86Fb6f18c4114C2E4f41901ab9803096"
      ],
      "transaction": {
        "from": "0xf39fd6e51aad88f6f4ce6ab8827279cfffb92266",
        "to": "0x7a53ef41aa7ced910e6118457a3d54b20bad7e5a",
        "gas": "0x36c00",
        "value": "0x0",
        "input": "0x090b4d310000000000000000000000000000000000000000000000000000000000000040000000000000000000000000dac6e56f86fb6f18c4114c2e4f41901ab98030960000000000000000000000000000000000000000000000000000000000000015697066733a2f2f516d5365656450726f6a656374330000000000000000000000",
        "nonce": "0x43f7",
        "chainId": "0xaa36a7"
      },
      "additionalContracts": [],
      "isFixedGasLimit": false
    }
  ],
  "receipts": [
    {
      "status": "0x1",
      "cumulativeGasUsed": "0x2ffce",
      "logs": [
        {
          "address": "0x7a53ef41aa7ced910e6118457a3d54b20bad7e5a",
          "topics": [
            "0xfa4b098e431ea3e9694b01acc7953efb1277c5eb3e4c4badf3c0e0e79f857b94",
            "0x000000000000000000000000dac6e56f86fb6f18c4114c2e4f41901ab9803096",
            "0x0000000000000000000000000000000000000000000000000000000000000000"
          ],
          "data": "0x00000000000000000000000000000000000000000000000000000000000000200000000000000000000000000000000000000000000000000000000000000015697066733a2f2f516d5365656450726f6a656374310000000000000000000000",
          "blockHash": "0xb19fef107f20e1011a27e12cb2c560b747afcec28529e62e6fc85823a030b538",
          "blockNumber": "0x849bd2",
          "blockTimestamp": "0x6867d882",
          "transactionHash": "0x6edcca78e2cac80c35450d3d998c2541700291519c49cf5c0c135320d5d2653c",
          "transactionIndex": "0x0",
          "logIndex": "0x0",
          "removed": false
        }
      ],
      "logsBloom": "0x00000000000000000000000000000000000000000000000000000000000000000000000000000000008000000000000000000000000000000000000000000000000000000000000000000000000000000000000000000000000000000000000000000000020000000000000000000800000000000400000002000000000000000000000008000000000000000000000000000000000080000000080000000000000000000000800000000000000000000000020000000000000000000000000000000000000000000000000000000000000000000000000000000000000020000000000000000000000000000000000000000000000000000000000000040000",
      "type": "0x2",
      "transactionHash": "0x6edcca78e2cac80c35450d3d998c2541700291519c49cf5c0c135320d5d2653c",
      "transactionIndex": "0x0",
      "blockHash": "0xb19fef107f20e1011a27e12cb2c560b747afcec28529e62e6fc85823a030b538",
      "blockNumber": "0x849bd2",
      "gasUsed": "0x2ffce",
      "effectiveGasPrice": "0x6156bb87",
      "blobGasPrice": "0x1",
      "from": "0xf39fd6e51aad88f6f4ce6ab8827279cfffb92266",
      "to": "0x7a53ef41aa7ced910e6118457a3d54b20bad7e5a",
      "contractAddress": null
    },
    {
      "status": "0x1",
      "cumulativeGasUsed": "0x27a36",
      "logs": [
        {
          "address": "0x7a53ef41aa7ced910e6118457a3d54b20bad7e5a",
          "topics": [
            "0xfa4b098e431ea3e9694b01acc7953efb1277c5eb3e4c4badf3c0e0e79f857b94",
            "0x000000000000000000000000dac6e56f86fb6f18c4114c2e4f41901ab9803096",
            "0x0000000000000000000000000000000000000000000000000000000000000000"
          ],
          "data": "0x00000000000000000000000000000000000000000000000000000000000000200000000000000000000000000000000000000000000000000000000000000015697066733a2f2f516d5365656450726f6a656374320000000000000000000000",
          "blockHash": "0x35aff425d0a007eb22904a3d8500d4cba74ae751b0feecd748be6cdff7d62186",
          "blockNumber": "0x849bd3",
          "blockTimestamp": "0x6867d882",
          "transactionHash": "0x65cbf5fbbeb837ccadbfbfa96d7ded399172f8fd3c07b2cbea427c50fd56a6c9",
          "transactionIndex": "0x0",
          "logIndex": "0x0",
          "removed": false
        }
      ],
      "logsBloom": "0x00000000000000000000000000000000000000000000000000000000000000000000000000000000008000000000000000000000000000000000000000000000000000000000000000000000000000000000000000000000000000000000000000000000020000000000000000000800000000000400000002000000000000000000000008000000000000000000000000000000000080000000080000000000000000000000800000000000000000000000020000000000000000000000000000000000000000000000000000000000000000000000000000000000000020000000000000000000000000000000000000000000000000000000000000040000",
      "type": "0x2",
      "transactionHash": "0x65cbf5fbbeb837ccadbfbfa96d7ded399172f8fd3c07b2cbea427c50fd56a6c9",
      "transactionIndex": "0x0",
      "blockHash": "0x35aff425d0a007eb22904a3d8500d4cba74ae751b0feecd748be6cdff7d62186",
      "blockNumber": "0x849bd3",
      "gasUsed": "0x27a36",
      "effectiveGasPrice": "0x554236cb",
      "blobGasPrice": "0x1",
      "from": "0xf39fd6e51aad88f6f4ce6ab8827279cfffb92266",
      "to": "0x7a53ef41aa7ced910e6118457a3d54b20bad7e5a",
      "contractAddress": null
    },
    {
      "status": "0x1",
      "cumulativeGasUsed": "0x4f46c",
      "logs": [
        {
          "address": "0x7a53ef41aa7ced910e6118457a3d54b20bad7e5a",
          "topics": [
            "0xfa4b098e431ea3e9694b01acc7953efb1277c5eb3e4c4badf3c0e0e79f857b94",
            "0x000000000000000000000000dac6e56f86fb6f18c4114c2e4f41901ab9803096",
            "0x0000000000000000000000000000000000000000000000000000000000000000"
          ],
          "data": "0x00000000000000000000000000000000000000000000000000000000000000200000000000000000000000000000000000000000000000000000000000000015697066733a2f2f516d5365656450726f6a656374330000000000000000000000",
          "blockHash": "0x35aff425d0a007eb22904a3d8500d4cba74ae751b0feecd748be6cdff7d62186",
          "blockNumber": "0x849bd3",
          "blockTimestamp": "0x6867d882",
          "transactionHash": "0x63b98b8e37d9c3a16cfd7b3cee6e3191371df00217fc30bc1e03b6673dc2f09c",
          "transactionIndex": "0x1",
          "logIndex": "0x1",
          "removed": false
        }
      ],
      "logsBloom": "0x00000000000000000000000000000000000000000000000000000000000000000000000000000000008000000000000000000000000000000000000000000000000000000000000000000000000000000000000000000000000000000000000000000000020000000000000000000800000000000400000002000000000000000000000008000000000000000000000000000000000080000000080000000000000000000000800000000000000000000000020000000000000000000000000000000000000000000000000000000000000000000000000000000000000020000000000000000000000000000000000000000000000000000000000000040000",
      "type": "0x2",
      "transactionHash": "0x63b98b8e37d9c3a16cfd7b3cee6e3191371df00217fc30bc1e03b6673dc2f09c",
      "transactionIndex": "0x1",
      "blockHash": "0x35aff425d0a007eb22904a3d8500d4cba74ae751b0feecd748be6cdff7d62186",
      "blockNumber": "0x849bd3",
      "gasUsed": "0x27a36",
      "effectiveGasPrice": "0x554236cb",
      "blobGasPrice": "0x1",
      "from": "0xf39fd6e51aad88f6f4ce6ab8827279cfffb92266",
      "to": "0x7a53ef41aa7ced910e6118457a3d54b20bad7e5a",
      "contractAddress": null
    }
  ],
  "libraries": [],
  "pending": [],
  "returns": {},
  "timestamp": 1751636106,
  "chain": 11155111,
  "commit": "d412e1d"
}