{
  "transactions": [
    {
      "hash": "0x7ee3507baa9d28cfbf0204e2c2d3f5d91c29c2ce8de1ab99a7f2bbd7afb12fc5",
      "transactionType": "CALL",
      "contractName": null,
      "contractAddress": "0xa16dfb32eb140a6f3f2ac68f41dad8c7e83c4941",
      "function": "setApprovalForAll(address,bool)",
      "arguments": [
        "0x7a53eF41Aa7CEd910E6118457a3d54B20bad7e5A",
        "true"
      ],
      "transaction": {
        "from": "0xdac6e56f86fb6f18c4114c2e4f41901ab9803096",
        "to": "0xa16dfb32eb140a6f3f2ac68f41dad8c7e83c4941",
        "gas": "0x1140d",
        "value": "0x0",
        "input": "0xa22cb4650000000000000000000000007a53ef41aa7ced910e6118457a3d54b20bad7e5a0000000000000000000000000000000000000000000000000000000000000001",
        "nonce": "0x37",
        "chainId": "0xaa36a7"
      },
      "additionalContracts": [],
      "isFixedGasLimit": false
    },
    {
      "hash": "0xacd1af4e97ee92daad798707f5183a99b517cac01f1e058f0604629c99684e3a",
      "transactionType": "CALL",
      "contractName": null,
      "contractAddress": "0x7a53ef41aa7ced910e6118457a3d54b20bad7e5a",
      "function": "storeTokenIDInit(string,uint256,uint256)",
      "arguments": [
        "ipfs://QmSeedProject1",
        "324629378042575294144059375489906873729025",
        "1000000"
      ],
      "transaction": {
        "from": "0xdac6e56f86fb6f18c4114c2e4f41901ab9803096",
        "to": "0x7a53ef41aa7ced910e6118457a3d54b20bad7e5a",
        "gas": "0x2fc86",
        "value": "0x0",
        "input": "0x8bf756910000000000000000000000000000000000000000000000000000000000000060000000000000000000000000000003ba0000000000000000000000000000000100000000000000000000000000000000000000000000000000000000000f42400000000000000000000000000000000000000000000000000000000000000015697066733a2f2f516d5365656450726f6a656374310000000000000000000000",
        "nonce": "0x38",
        "chainId": "0xaa36a7"
      },
      "additionalContracts": [],
      "isFixedGasLimit": false
    },
    {
      "hash": "0x264550262a121b8d6d7f61f48ae2e6bbd061a92b5bc15995bbe23012ec401eed",
      "transactionType": "CALL",
      "contractName": null,
      "contractAddress": "0x7a53ef41aa7ced910e6118457a3d54b20bad7e5a",
      "function": "recordOutputs(string,string)",
      "arguments": [
        "ipfs://QmSeedProject1",
        "ipfs://outputs-0"
      ],
      "transaction": {
        "from": "0xdac6e56f86fb6f18c4114c2e4f41901ab9803096",
        "to": "0x7a53ef41aa7ced910e6118457a3d54b20bad7e5a",
        "gas": "0x14553",
        "value": "0x0",
        "input": "0xddda1e07000000000000000000000000000000000000000000000000000000000000004000000000000000000000000000000000000000000000000000000000000000800000000000000000000000000000000000000000000000000000000000000015697066733a2f2f516d5365656450726f6a6563743100000000000000000000000000000000000000000000000000000000000000000000000000000000000010697066733a2f2f6f7574707574732d3000000000000000000000000000000000",
        "nonce": "0x39",
        "chainId": "0xaa36a7"
      },
      "additionalContracts": [],
      "isFixedGasLimit": false
    },
    {
      "hash": "0xd5063f4bbb2e2043ceeed0b86971211c4ab04830f53fe9c5421dae460adf72b7",
      "transactionType": "CALL",
      "contractName": null,
      "contractAddress": "0x7a53ef41aa7ced910e6118457a3d54b20bad7e5a",
      "function": "storeTokenIDInit(string,uint256,uint256)",
      "arguments": [
        "ipfs://QmSeedProject2",
        "324969660409496232607522750097338641940481",
        "1000000"
      ],
      "transaction": {
        "from": "0xdac6e56f86fb6f18c4114c2e4f41901ab9803096",
        "to": "0x7a53ef41aa7ced910e6118457a3d54b20bad7e5a",
        "gas": "0x2fc86",
        "value": "0x0",
        "input": "0x8bf756910000000000000000000000000000000000000000000000000000000000000060000000000000000000000000000003bb0000000000000000000000000000000100000000000000000000000000000000000000000000000000000000000f42400000000000000000000000000000000000000000000000000000000000000015697066733a2f2f516d5365656450726f6a656374320000000000000000000000",
        "nonce": "0x3a",
        "chainId": "0xaa36a7"
      },
      "additionalContracts": [],
      "isFixedGasLimit": false
    },
    {
      "hash": "0x9265af9eb8174b8971a83cf1d7100619a16aae4f970c95bb4c78dae08d8d6f1c",
      "transactionType": "CALL",
      "contractName": null,
      "contractAddress": "0x7a53ef41aa7ced910e6118457a3d54b20bad7e5a",
      "function": "recordOutputs(string,string)",
      "arguments": [
        "ipfs://QmSeedProject2",
        "ipfs://outputs-1"
      ],
      "transaction": {
        "from": "0xdac6e56f86fb6f18c4114c2e4f41901ab9803096",
        "to": "0x7a53ef41aa7ced910e6118457a3d54b20bad7e5a",
        "gas": "0x14553",
        "value": "0x0",
        "input": "0xddda1e07000000000000000000000000000000000000000000000000000000000000004000000000000000000000000000000000000000000000000000000000000000800000000000000000000000000000000000000000000000000000000000000015697066733a2f2f516d5365656450726f6a6563743200000000000000000000000000000000000000000000000000000000000000000000000000000000000010697066733a2f2f6f7574707574732d3100000000000000000000000000000000",
        "nonce": "0x3b",
        "chainId": "0xaa36a7"
      },
      "additionalContracts": [],
      "isFixedGasLimit": false
    },
    {
      "hash": "0x707ef395b5ca0e40b9e84e88846124c4e441b542553a54d811f7093ce9264779",
      "transactionType": "CALL",
      "contractName": null,
      "contractAddress": "0x7a53ef41aa7ced910e6118457a3d54b20bad7e5a",
      "function": "storeTokenIDInit(string,uint256,uint256)",
      "arguments": [
        "ipfs://QmSeedProject3",
        "325309942776417171070986124704770410151937",
        "1000000"
      ],
      "transaction": {
        "from": "0xdac6e56f86fb6f18c4114c2e4f41901ab9803096",
        "to": "0x7a53ef41aa7ced910e6118457a3d54b20bad7e5a",
        "gas": "0x2fc86",
        "value": "0x0",
        "input": "0x8bf756910000000000000000000000000000000000000000000000000000000000000060000000000000000000000000000003bc0000000000000000000000000000000100000000000000000000000000000000000000000000000000000000000f42400000000000000000000000000000000000000000000000000000000000000015697066733a2f2f516d5365656450726f6a656374330000000000000000000000",
        "nonce": "0x3c",
        "chainId": "0xaa36a7"
      },
      "additionalContracts": [],
      "isFixedGasLimit": false
    },
    {
      "hash": "0x92eea8fc9d0848bb86155114baea147db6fb0240080eea0447aad5467f2f40c5",
      "transactionType": "CALL",
      "contractName": null,
      "contractAddress": "0x7a53ef41aa7ced910e6118457a3d54b20bad7e5a",
      "function": "recordOutputs(string,string)",
      "arguments": [
        "ipfs://QmSeedProject3",
        "ipfs://outputs-2"
      ],
      "transaction": {
        "from": "0xdac6e56f86fb6f18c4114c2e4f41901ab9803096",
        "to": "0x7a53ef41aa7ced910e6118457a3d54b20bad7e5a",
        "gas": "0x14553",
        "value": "0x0",
        "input": "0xddda1e07000000000000000000000000000000000000000000000000000000000000004000000000000000000000000000000000000000000000000000000000000000800000000000000000000000000000000000000000000000000000000000000015697066733a2f2f516d5365656450726f6a6563743300000000000000000000000000000000000000000000000000000000000000000000000000000000000010697066733a2f2f6f7574707574732d3200000000000000000000000000000000",
        "nonce": "0x3d",
        "chainId": "0xaa36a7"
      },
      "additionalContracts": [],
      "isFixedGasLimit": false
    }
  ],
  "receipts": [
    {
      "status": "0x1",
      "cumulativeGasUsed": "0xc7dc",
      "logs": [
        {
          "address": "0xa16dfb32eb140a6f3f2ac68f41dad8c7e83c4941",
          "topics": [
            "0x17307eab39ab6107e8899845ad3d59bd9653f200f220920489ca2b5937696c31",
            "0x000000000000000000000000dac6e56f86fb6f18c4114c2e4f41901ab9803096",
            "0x0000000000000000000000007a53ef41aa7ced910e6118457a3d54b20bad7e5a"
          ],
          "data": "0x0000000000000000000000000000000000000000000000000000000000000001",
          "blockHash": "0x2b34cedb1034d446f0c3b633db32149de243f3e97c081adf58bb441269056766",
          "blockNumber": "0x849bd8",
          "blockTimestamp": "0x6867dd0c",
          "transactionHash": "0x7ee3507baa9d28cfbf0204e2c2d3f5d91c29c2ce8de1ab99a7f2bbd7afb12fc5",
          "transactionIndex": "0x0",
          "logIndex": "0x0",
          "removed": false
        }
      ],
      "logsBloom": "0x00000000000000000000000000000000000000000000000000000000200000000000000000000000000000000000000020000000000000000000000000000000000000000000000000000000000000000000000000000000000000000000000002000000000000000000000000000000000000000400000000000000000000000000000008000000000000000000000000000000000000000000000000000000000000000000000002000000000000000000020000000000000000000000000000000000002000000000000000000000000000000000000000000000004000000000200800000000000000000000000000000000000000000000000000000000",
      "type": "0x2",
      "transactionHash": "0x7ee3507baa9d28cfbf0204e2c2d3f5d91c29c2ce8de1ab99a7f2bbd7afb12fc5",
      "transactionIndex": "0x0",
      "blockHash": "0x2b34cedb1034d446f0c3b633db32149de243f3e97c081adf58bb441269056766",
      "blockNumber": "0x849bd8",
      "gasUsed": "0xc7dc",
      "effectiveGasPrice": "0x49c66f6d",
      "blobGasPrice": "0x1",
      "from": "0xdac6e56f86fb6f18c4114c2e4f41901ab9803096",
      "to": "0xa16dfb32eb140a6f3f2ac68f41dad8c7e83c4941",
      "contractAddress": null
    },
    {
      "status": "0x1",
      "cumulativeGasUsed": "0x20ac1",
      "logs": [],
      "logsBloom": "0x00000000000000000000000000000000000000000000000000000000000000000000000000000000000000000000000000000000000000000000000000000000000000000000000000000000000000000000000000000000000000000000000000000000000000000000000000000000000000000000000000000000000000000000000000000000000000000000000000000000000000000000000000000000000000000000000000000000000000000000000000000000000000000000000000000000000000000000000000000000000000000000000000000000000000000000000000000000000000000000000000000000000000000000000000000000",
      "type": "0x2",
      "transactionHash": "0xacd1af4e97ee92daad798707f5183a99b517cac01f1e058f0604629c99684e3a",
      "transactionIndex": "0x0",
      "blockHash": "0xce7cf91fedab1b151143ff7c49772327039d9f9473d1710b10fcdb6d68685f76",
      "blockNumber": "0x849bd9",
      "gasUsed": "0x20ac1",
      "effectiveGasPrice": "0x444aa8cd",
      "blobGasPrice": "0x1",
      "from": "0xdac6e56f86fb6f18c4114c2e4f41901ab9803096",
      "to": "0x7a53ef41aa7ced910e6118457a3d54b20bad7e5a",
      "contractAddress": null
    },
    {
      "status": "0x1",
      "cumulativeGasUsed": "0x2e933",
      "logs": [
        {
          "address": "0x7a53ef41aa7ced910e6118457a3d54b20bad7e5a",
          "topics": [
            "0x83810a5ae5d74fe9f6edba3f5afafdd0f80dc76006055b5c9d592bfd84daab66",
            "0x000000000000000000000000dac6e56f86fb6f18c4114c2e4f41901ab9803096",
            "0x000000000000000000000000000003ba00000000000000000000000000000000"
          ],
          "data": "0x000000000000000000000000000000000000000000000000000000000000004000000000000000000000000000000000000000000000000000000000000000800000000000000000000000000000000000000000000000000000000000000015697066733a2f2f516d5365656450726f6a6563743100000000000000000000000000000000000000000000000000000000000000000000000000000000000010697066733a2f2f6f7574707574732d3000000000000000000000000000000000",
          "blockHash": "0xce7cf91fedab1b151143ff7c49772327039d9f9473d1710b10fcdb6d68685f76",
          "blockNumber": "0x849bd9",
          "blockTimestamp": "0x6867dd0c",
          "transactionHash": "0x264550262a121b8d6d7f61f48ae2e6bbd061a92b5bc15995bbe23012ec401eed",
          "transactionIndex": "0x1",
          "logIndex": "0x0",
          "removed": false
        }
      ],
      "logsBloom": "0x00000000000000000000000004000000000000004000000000000000000000000000000000000000000000000000000000000000000000000000000000000000000000000000040000000000000000000000000000000000000000000000000000000000000000000000000000000000000000000400000000000000000000000000000008000000001000000000000000000000000000000000080000000000000000000000800010000400000000000000020000000000000000000000000000000000000000000000000000000000000000000000000000000000000000000000000000000000000000000000000000000000000000000000000000040000",
      "type": "0x2",
      "transactionHash": "0x264550262a121b8d6d7f61f48ae2e6bbd061a92b5bc15995bbe23012ec401eed",
      "transactionIndex": "0x1",
      "blockHash": "0xce7cf91fedab1b151143ff7c49772327039d9f9473d1710b10fcdb6d68685f76",
      "blockNumber": "0x849bd9",
      "gasUsed": "0xde72",
      "effectiveGasPrice": "0x444aa8cd",
      "blobGasPrice": "0x1",
      "from": "0xdac6e56f86fb6f18c4114c2e4f41901ab9803096",
      "to": "0x7a53ef41aa7ced910e6118457a3d54b20bad7e5a",
      "contractAddress": null
    },
    {
      "status": "0x1",
      "cumulativeGasUsed": "0x4f3f4",
      "logs": [],
      "logsBloom": "0x00000000000000000000000000000000000000000000000000000000000000000000000000000000000000000000000000000000000000000000000000000000000000000000000000000000000000000000000000000000000000000000000000000000000000000000000000000000000000000000000000000000000000000000000000000000000000000000000000000000000000000000000000000000000000000000000000000000000000000000000000000000000000000000000000000000000000000000000000000000000000000000000000000000000000000000000000000000000000000000000000000000000000000000000000000000",
      "type": "0x2",
      "transactionHash": "0xd5063f4bbb2e2043ceeed0b86971211c4ab04830f53fe9c5421dae460adf72b7",
      "transactionIndex": "0x2",
      "blockHash": "0xce7cf91fedab1b151143ff7c49772327039d9f9473d1710b10fcdb6d68685f76",
      "blockNumber": "0x849bd9",
      "gasUsed": "0x20ac1",
      "effectiveGasPrice": "0x444aa8cd",
      "blobGasPrice": "0x1",
      "from": "0xdac6e56f86fb6f18c4114c2e4f41901ab9803096",
      "to": "0x7a53ef41aa7ced910e6118457a3d54b20bad7e5a",
      "contractAddress": null
    },
    {
      "status": "0x1",
      "cumulativeGasUsed": "0x5d266",
      "logs": [
        {
          "address": "0x7a53ef41aa7ced910e6118457a3d54b20bad7e5a",
          "topics": [
            "0x83810a5ae5d74fe9f6edba3f5afafdd0f80dc76006055b5c9d592bfd84daab66",
            "0x000000000000000000000000dac6e56f86fb6f18c4114c2e4f41901ab9803096",
            "0x000000000000000000000000000003bb00000000000000000000000000000000"
          ],
          "data": "0x000000000000000000000000000000000000000000000000000000000000004000000000000000000000000000000000000000000000000000000000000000800000000000000000000000000000000000000000000000000000000000000015697066733a2f2f516d5365656450726f6a6563743200000000000000000000000000000000000000000000000000000000000000000000000000000000000010697066733a2f2f6f7574707574732d3100000000000000000000000000000000",
          "blockHash": "0xce7cf91fedab1b151143ff7c49772327039d9f9473d1710b10fcdb6d68685f76",
          "blockNumber": "0x849bd9",
          "blockTimestamp": "0x6867dd0c",
          "transactionHash": "0x9265af9eb8174b8971a83cf1d7100619a16aae4f970c95bb4c78dae08d8d6f1c",
          "transactionIndex": "0x3",
          "logIndex": "0x1",
          "removed": false
        }
      ],
      "logsBloom": "0x00000000000000000000000000000000000000000000000000000000000000000000000000000000000000000400000000000000000000000000000000000000000000000000040000000000000000000000000000000000000000000000000100000000000000000010000000000000000000000400000000000000000000000000000008000000001000000000000000000000000000000000080000000000000000000000800000000400000000000000020000000000000000000000000000000000000000000000000000000000000000000000000000000000000000000000000000000000000000000000000000000000000000000000000000040000",
      "type": "0x2",
      "transactionHash": "0x9265af9eb8174b8971a83cf1d7100619a16aae4f970c95bb4c78dae08d8d6f1c",
      "transactionIndex": "0x3",
      "blockHash": "0xce7cf91fedab1b151143ff7c49772327039d9f9473d1710b10fcdb6d68685f76",
      "blockNumber": "0x849bd9",
      "gasUsed": "0xde72",
      "effectiveGasPrice": "0x444aa8cd",
      "blobGasPrice": "0x1",
      "from": "0xdac6e56f86fb6f18c4114c2e4f41901ab9803096",
      "to": "0x7a53ef41aa7ced910e6118457a3d54b20bad7e5a",
      "contractAddress": null
    },
    {
      "status": "0x1",
      "cumulativeGasUsed": "0x20ac1",
      "logs": [],
      "logsBloom": "0x00000000000000000000000000000000000000000000000000000000000000000000000000000000000000000000000000000000000000000000000000000000000000000000000000000000000000000000000000000000000000000000000000000000000000000000000000000000000000000000000000000000000000000000000000000000000000000000000000000000000000000000000000000000000000000000000000000000000000000000000000000000000000000000000000000000000000000000000000000000000000000000000000000000000000000000000000000000000000000000000000000000000000000000000000000000",
      "type": "0x2",
      "transactionHash": "0x707ef395b5ca0e40b9e84e88846124c4e441b542553a54d811f7093ce9264779",
      "transactionIndex": "0x0",
      "blockHash": "0x7c652b3ebc2aab8744329bb47936f76f3c2cbd4672f18ef789b8fef4be1984e1",
      "blockNumber": "0x849bda",
      "gasUsed": "0x20ac1",
      "effectiveGasPrice": "0x3f8b9f5a",
      "blobGasPrice": "0x1",
      "from": "0xdac6e56f86fb6f18c4114c2e4f41901ab9803096",
      "to": "0x7a53ef41aa7ced910e6118457a3d54b20bad7e5a",
      "contractAddress": null
    },
    {
      "status": "0x1",
      "cumulativeGasUsed": "0xde72",
      "logs": [
        {
          "address": "0x7a53ef41aa7ced910e6118457a3d54b20bad7e5a",
          "topics": [
            "0x83810a5ae5d74fe9f6edba3f5afafdd0f80dc76006055b5c9d592bfd84daab66",
            "0x000000000000000000000000dac6e56f86fb6f18c4114c2e4f41901ab9803096",
            "0x000000000000000000000000000003bc00000000000000000000000000000000"
          ],
          "data": "0x000000000000000000000000000000000000000000000000000000000000004000000000000000000000000000000000000000000000000000000000000000800000000000000000000000000000000000000000000000000000000000000015697066733a2f2f516d5365656450726f6a6563743300000000000000000000000000000000000000000000000000000000000000000000000000000000000010697066733a2f2f6f7574707574732d3200000000000000000000000000000000",
          "blockHash": "0x11ee3dc962ee3434dbc5e280762b93cc904cac3cda90edbe886932cae83572a8",
          "blockNumber": "0x849bdb",
          "blockTimestamp": "0x6867dd0c",
          "transactionHash": "0x92eea8fc9d0848bb86155114baea147db6fb0240080eea0447aad5467f2f40c5",
          "transactionIndex": "0x0",
          "logIndex": "0x0",
          "removed": false
        }
      ],
      "logsBloom": "0x00000000000000000000000000000000000000000000000000000000000000000000000000000000000000000000000000000000000000001000000000000000000000000000040000000000000000000000000000000000000000000000000000000000000000000000000000000000000000000400000000000000000000000200000008000000001000000000000000000000000000000000080000000000000000000000800000000400000000000000022000000000000000000000000000000000000000000000000000000000000000000000000000000000000000000000000000000000000000000000000000000000000000000000000000040000",
      "type": "0x2",
      "transactionHash": "0x92eea8fc9d0848bb86155114baea147db6fb0240080eea0447aad5467f2f40c5",
      "transactionIndex": "0x0",
      "blockHash": "0x11ee3dc962ee3434dbc5e280762b93cc904cac3cda90edbe886932cae83572a8",
      "blockNumber": "0x849bdb",
      "gasUsed": "0xde72",
      "effectiveGasPrice": "0x3b599d65",
      "blobGasPrice": "0x1",
      "from": "0xdac6e56f86fb6f18c4114c2e4f41901ab9803096",
      "to": "0x7a53ef41aa7ced910e6118457a3d54b20bad7e5a",
      "contractAddress": null
    }
  ],
  "libraries": [],
  "pending": [],
  "returns": {},
  "timestamp": 1751637268,
  "chain": 11155111,
  "commit": "d412e1d"
}