{
  "transactions": [
    {
      "hash": null,
      "transactionType": "CALL",
      "contractName": null,
      "contractAddress": "0x7a53ef41aa7ced910e6118457a3d54b20bad7e5a",
      "function": "initProject(string,address)",
      "arguments": [
        "ipfs://QmSeedProject1",
        "0xdaC6E56F86Fb6f18c4114C2E4f41901ab9803096"
      ],
      "transaction": {
        "from": "0xf39fd6e51aad88f6f4ce6ab8827279cfffb92266",
        "to": "0x7a53ef41aa7ced910e6118457a3d54b20bad7e5a",
        "gas": "0x42486",
        "value": "0x0",
        "input": "0x090b4d310000000000000000000000000000000000000000000000000000000000000040000000000000000000000000dac6e56f86fb6f18c4114c2e4f41901ab98030960000000000000000000000000000000000000000000000000000000000000015697066733a2f2f516d5365656450726f6a656374310000000000000000000000",
        "nonce": "0x43f5",
        "chainId": "0xaa36a7"
      },
      "additionalContracts": [],
      "isFixedGasLimit": false
    },
    {
      "hash": null,
      "transactionType": "CALL",
      "contractName": null,
      "contractAddress": "0x7a53ef41aa7ced910e6118457a3d54b20bad7e5a",
      "function": "initProject(string,address)",
      "arguments": [
        "ipfs://QmSeedProject2",
        "0xdaC6E56F86Fb6f18c4114C2E4f41901ab9803096"
      ],
      "transaction": {
        "from": "0xf39fd6e51aad88f6f4ce6ab8827279cfffb92266",
        "to": "0x7a53ef41aa7ced910e6118457a3d54b20bad7e5a",
        "gas": "0x36c00",
        "value": "0x0",
        "input": "0x090b4d310000000000000000000000000000000000000000000000000000000000000040000000000000000000000000dac6e56f86fb6f18c4114c2e4f41901ab98030960000000000000000000000000000000000000000000000000000000000000015697066733a2f2f516d5365656450726f6a656374320000000000000000000000",
        "nonce": "0x43f6",
        "chainId": "0xaa36a7"
      },
      "additionalContracts": [],
      "isFixedGasLimit": false
    },
    {
      "hash": null,
      "transactionType": "CALL",
      "contractName": null,
      "contractAddress": "0x7a53ef41aa7ced910e6118457a3d54b20bad7e5a",
      "function": "initProject(string,address)",
      "arguments": [
        "ipfs://QmSeedProject3",
        "0xdaC6E56F86Fb6f18c4114C2E4f41901ab9803096"
      ],
      "transaction": {
        "from": "0xf39fd6e51aad88f6f4ce6ab8827279cfffb92266",
        "to": "0x7a53ef41aa7ced910e6118457a3d54b20bad7e5a",
        "gas": "0x36c00",
        "value": "0x0",
        "input": "0x090b4d310000000000000000000000000000000000000000000000000000000000000040000000000000000000000000dac6e56f86fb6f18c4114c2e4f41901ab98030960000000000000000000000000000000000000000000000000000000000000015697066733a2f2f516d5365656450726f6a656374330000000000000000000000",
        "nonce": "0x43f7",
        "chainId": "0xaa36a7"
      },
      "additionalContracts": [],
      "isFixedGasLimit": false
    }
  ],
  "receipts": [],
  "libraries": [],
  "pending": [],
  "returns": {},
  "timestamp": 1751636085,
  "chain": 11155111,
  "commit": "d412e1d"
}